:020000040000FA
:10000000806A92680F0EC16E070EB46E936A8A6A98
:1000100080CF02F080CF03F00C0E021602420242A3
:10002000030E031680AC17EF00F026EF00F080AA55
:100030001CEF00F021EF00F080A835EF00F03AEF60
:1000400000F080A83FEF00F045EF00F080AA2BEF12
:1000500000F030EF00F080A84AEF00F04FEF00F022
:1000600080A854EF00F058EF00F0035002248A6E8D
:1000700008EF00F00350025C8A6E08EF00F00350B6
:100080000202F3CF8AFF08EF00F0035002148A6ED9
:1000900008EF00F0035002108A6E08EF00F00350E2
:1000A00002188A6E08EF00F0021C8A6E08EF00F05A
:0A00B0000250006C8A6E08EF00F0A9
:0200BA00000044
:020000040030CA
:0100000000FF
:0100010008F6
:0100020018E5
:010003001EDE
:010005008179
:010006008178
:010008000FE8
:01000900C036
:01000A000FE6
:01000B00E014
:01000C000FE4
:01000D0040B2
:00000001FF
