:020000040000FA
:100000001EEF00F00A0E016E510E006E0000002E71
:1000100007EF00F0012E04EF00F01200400E026E18
:100020000000022E11EF00F0FF0E016E510E006E67
:100030000000002EFED7012EF9D71200846A9668C0
:100040000F0EC16E070EB46E8A6A936A0EEC00F052
:1000500084A026EF00F042EF00F00EEC00F084A048
:100060002DEF00F046EF00F00EEC00F084A034EF2E
:1000700000F04AEF00F00EEC00F084A03BEF00F03F
:100080004EEF00F03F0E816E2DEF00F0060E816EF8
:1000900034EF00F05B0E816E3BEF00F04F0E816E8F
:0400A0004EEF00F02F
:0200A40000005A
:020000040030CA
:0100000000FF
:0100010008F6
:0100020018E5
:010003001EDE
:010005008179
:010006008178
:010008000FE8
:01000900C036
:01000A000FE6
:01000B00E014
:01000C000FE4
:01000D0040B2
:00000001FF
