:020000040000FA
:1000000012EF00F0400E206E0000202E05EF00F0F1
:10001000FF0E1F6E510E1E6E00001E2EFED71F2EED
:10002000F9D7120000D0956A8C6AE86A780E8C6E57
:1000300002EC00F002EC00F0790E8C6E02EC00F0A5
:1000400002EC00F0380E8C6E02EC00F002EC00F0D6
:10005000790E8C6E02EC00F002EC00F06D0E8C6EEE
:1000600002EC00F002EC00F0390E8C6E02EC00F0B5
:1000700002EC00F03F0E8C6E02EC00F002EC00F09F
:10008000730E8C6E02EC00F002EC00F0300E8C6E01
:1000900002EC00F002EC00F03F0E8C6E02EC00F07F
:0800A00002EC00F016EF00F085
:0200A800000056
:020000040030CA
:0100000000FF
:0100010008F6
:0100020018E5
:010003001EDE
:010005008179
:010006008178
:010008000FE8
:01000900C036
:01000A000FE6
:01000B00E014
:01000C000FE4
:01000D0040B2
:00000001FF
