:020000040000FA
:1000000010D0400E0F6E00000F2E04EF00F0FF0E18
:100010000E6E510E0D6E00000D2EFED70E2EF9D76E
:100020001200936A8A6AE86A8A808A8E01EC00F07C
:100030008A908A9E01EC00F08A828A8C01EC00F0A2
:100040008A928A9C01EC00F08A848A8A01EC00F092
:100050008A948A9A01EC00F08A868A8801EC00F082
:100060008A968A9801EC00F08A888A8601EC00F072
:100070008A988A9601EC00F08A8A8A8401EC00F062
:100080008A9A8A9401EC00F08A8C8A8201EC00F052
:100090008A9C8A9201EC00F08A8E8A8001EC00F042
:0A00A0008A9E8A9001EC00F0BFD7A1
:0200AA00000054
:020000040030CA
:0100000000FF
:0100010008F6
:0100020018E5
:010003001EDE
:010005008179
:010006008178
:010008000FE8
:01000900C036
:01000A000FE6
:01000B00E014
:01000C000FE4
:01000D0040B2
:00000001FF
