:020000040000FA
:1000000012EF00F0460E206E0000202E05EF00F0EB
:10001000FF0E1F6E640E1E6E00001E2EFED71F2EDA
:10002000F9D71200806A300E926E0F0EC16E070E65
:10003000B46E8A6A936A1DEF00F080AC70EF00F036
:1000400022EF00F07F0E8A6E80B822EF00F002EC03
:1000500000F002EC00F080BAE4EF00F035EF00F0C1
:1000600080AC70EF00F035EF00F07D0E8A6E80B846
:1000700035EF00F002EC00F002EC00F080BAE4EFA3
:1000800000F048EF00F080AC70EF00F048EF00F0B7
:10009000660E8A6E80B848EF00F002EC00F002ECC9
:1000A00000F080BAE4EF00F05BEF00F080AC70EF9E
:1000B00000F05BEF00F05B0E8A6E80B85BEF00F043
:1000C00002EC00F002EC00F080BAE4EF00F022EF66
:1000D00000F080AC70EF00F022EF00F01DEF00F0B8
:1000E0005B0E8A6E80B870EF00F002EC00F002EC5C
:1000F00000F080BAE4EF00F083EF00F080BC22EF64
:1001000000F083EF00F04F0E8A6E80B883EF00F0AE
:1001100002EC00F002EC00F080BAE4EF00F096EFA1
:1001200000F080BC22EF00F096EF00F06D0E8A6EBA
:1001300080B896EF00F002EC00F002EC00F080BA1C
:10014000E4EF00F0A9EF00F080BC22EF00F0A9EF8F
:1001500000F0070E8A6E80B8A9EF00F002EC00F004
:1001600002EC00F080BAE4EF00F0BCEF00F080BCDD
:1001700022EF00F0BCEF00F07C0E8A6E80B8BCEF7E
:1001800000F002EC00F002EC00F080BAE4EF00F0C6
:10019000CFEF00F080BC22EF00F0CFEF00F05E0E5A
:1001A0008A6E80B8CFEF00F002EC00F002EC00F0B5
:1001B00080BAE4EF00F070EF00F080BC22EF00F0B6
:1001C00070EF00F01DEF00F03F0E8A6E1DEF00F0A3
:1001D00000001DEF00F080AAE8EF00F0EBEF00F068
:0401E0001DEF00F01F
:0201E400000019
:020000040030CA
:0100000000FF
:0100010008F6
:0100020018E5
:010003001EDE
:010005008179
:010006008178
:010008000FE8
:01000900C036
:01000A000FE6
:01000B00E014
:01000C000FE4
:01000D0040B2
:00000001FF
