:020000040000FA
:100000001EEF00F00A0E016E510E006E0000002E71
:1000100007EF00F0012E04EF00F01200400E026E18
:100020000000022E11EF00F0FF0E016E510E006E67
:100030000000002EFED7012EF9D71200846A9668C0
:100040000F0EC16E070EB46E8C6A956A3CEF00F01D
:1000500084A228EF00F03CEF00F084A22DEF00F026
:1000600045EF00F084A232EF00F04EEF00F084A2E2
:1000700037EF00F057EF00F03F0E836E02EC00F018
:1000800084B23EEF00F02DEF00F0060E836E02EC1E
:1000900000F084B247EF00F032EF00F05B0E836EA9
:1000A00002EC00F084B250EF00F037EF00F04F0E9A
:1000B000836E02EC00F084B259EF00F028EF00F0FC
:0200C00000003E
:00000001FF
