:020000040000FA
:100000000DEF00F00A0E016E0000510E006E0000B0
:10001000002EFED7012EF9D71200846A96680F0EC3
:10002000C16E070EB46E956A8C6A3F0E8C6E84A00A
:1000300015EF00F002EC00F084B01AEF00F021EFB1
:1000400000F0060E8C6E84A021EF00F002EC00F0B0
:1000500084B026EF00F02DEF00F05B0E8C6E84A0D4
:100060002DEF00F002EC00F084B032EF00F039EF39
:1000700000F04F0E8C6E84A039EF00F002EC00F01F
:1000800084B03EEF00F045EF00F03F0E8C6E84A090
:0800900045EF00F015EF00F050
:02009800000066
:00000001FF
