:020000040000FA
:100000000DEF00F00A0E016E0000510E006E0000B0
:10001000002EFED7012EF9D71200846A96680F0EC3
:10002000C16E070EB46E956A8C6A3F0E8C6E84A00A
:1000300015EF00F002EC00F084B01AEF00F021EFB1
:1000400000F0060E8C6E84A221EF00F04AEF00F063
:1000500084A021EF00F002EC00F084B02BEF00F060
:1000600032EF00F05B0E8C6E84A032EF00F002ECF9
:1000700000F084B037EF00F03EEF00F04F0E8C6ED2
:1000800084A03EEF00F002EC00F084B037EF00F007
:080090003EEF00F03F0E8C6E04
:02009800000066
:00000001FF
