:020000040000FA
:1000000026EF00F00A0E336E0000510E326E000033
:10001000322EFED7332EF9D7120002EC00F002EC9C
:1000200000F002EC00F002EC00F002EC00F0010E37
:10003000816E02EC00F002EC00F002EC00F002EC49
:1000400000F002EC00F0000E816E1200846A9668E7
:10005000806A92680F0EC16E070EB46E936A8A6A48
:10006000956A8C6A000E8C6E000E8A6E80A232EF4A
:1000700000F03BEF00F080A040EF00F032EF00F026
:10008000390E8C6E080E8A6E84A040EF00F002ECF0
:1000900000F084B047EF00F04EEF00F084A258EF7C
:1000A00000F002EC00F084B24EEF00F040EF00F000
:1000B00080A232EF00F080A060EF00F032EF00F09D
:1000C0007C0E8C6E080E8A6E84A04EEF00F002EC5F
:1000D00000F084B067EF00F078EF00F084A278EFD2
:1000E00000F002EC00F084B26EEF00F04EEF00F092
:1000F00080A232EF00F080A080EF00F032EF00F03D
:10010000770E8C6E080E8A6E84A06EEF00F002EC03
:1001100000F084B087EF00F098EF00F084A298EF31
:1001200000F002EC00F084B28EEF00F06EEF00F011
:1001300080A232EF00F080A0A0EF00F032EF00F0DC
:10014000670E8C6E080E8A6E84A08EEF00F002ECB3
:1001500000F084B0A7EF00F0B8EF00F084A2B8EF91
:1001600000F002EC00F084B2AEEF00F08EEF00F091
:1001700080A232EF00F080A0C0EF00F032EF00F07C
:100180007F0E8C6E080E8A6E84A0AEEF00F002EC3B
:1001900000F084B0C7EF00F0D8EF00F084A2D8EFF1
:1001A00000F002EC00F084B2CEEF00F0AEEF00F011
:1001B00080A232EF00F080A0E0EF00F032EF00F01C
:1001C000070E8C6E080E8A6E84A0CEEF00F002EC53
:1001D00000F084B0E7EF00F0F8EF00F084A2F8EF51
:1001E00000F002EC00F084B2EEEF00F0CEEF00F091
:1001F00080A232EF00F080A000EF01F032EF00F0BB
:100200007D0E8C6E080E8A6E84A0EEEF00F002EC7C
:1002100000F084B007EF01F018EF01F084A218EFAE
:1002200001F002EC00F084B20EEF01F0EEEF00F00E
:1002300080A232EF00F080A020EF01F032EF00F05A
:100240006D0E8C6E080E8A6E84A00EEF01F002EC2B
:1002500000F084B027EF01F038EF01F084A238EF0E
:1002600001F002EC00F084B22EEF01F00EEF01F08D
:1002700080A232EF00F080A040EF01F032EF00F0FA
:10028000660E8C6E080E8A6E84A02EEF01F002ECD2
:1002900000F084B047EF01F058EF01F084A258EF6E
:1002A00001F002EC00F084B24EEF01F02EEF01F00D
:1002B00080A232EF00F080A060EF01F032EF00F09A
:1002C0004F0E8C6E080E8A6E84A04EEF01F002EC89
:1002D00000F084B067EF01F078EF01F084A278EFCE
:1002E00001F002EC00F084B26EEF01F04EEF01F08D
:1002F00080A232EF00F080A080EF01F032EF00F03A
:100300005B0E8C6E080E8A6E84A06EEF01F002EC1C
:1003100000F084B087EF01F098EF01F084A298EF2D
:1003200001F002EC00F084B28EEF01F06EEF01F00C
:1003300080A232EF00F080A0A0EF01F032EF00F0D9
:10034000060E8C6E080E8A6E84A08EEF01F002EC11
:1003500000F084B0A7EF01F0B8EF01F084A2B8EF8D
:1003600001F002EC00F084B2AEEF01F08EEF01F08C
:1003700080A232EF00F080A0C0EF01F032EF00F079
:100380000DEC00F03F0E8C6E84A0AEEF01F002EC9D
:0C03900000F084B0C7EF01F0B8EF01F0FE
:02039C0000005F
:020000040030CA
:0100000000FF
:0100010008F6
:0100020018E5
:010003001EDE
:010005008179
:010006008178
:010008000FE8
:01000900C036
:01000A000FE6
:01000B00E014
:01000C000FE4
:01000D0040B2
:00000001FF
