:020000040000FA
:100000000DEF00F0F9263F0C060C5B0C4F0C660C54
:100010006D0C7D0C470C7F0C670C806A92680F0E8C
:10002000C16E070EB46E956A8C6A80CF00F080CFE7
:1000300001F0030E01160C0E00160042004280ACC7
:1000400024EF00F029EF00F080AA2EEF00F036EF49
:1000500000F080AA4BEF00F015EF00F001500024F3
:10006000E84402EC00F08C6E15EF00F00150005CEB
:10007000D8A845EF00F03DEF00F08C8EE86CE84426
:1000800002EC00F08C6E15EF00F0E84402EC00F09A
:100090008C6E15EF00F001500002F3CFE8FFE8444A
:0A00A00002EC00F08C6E15EF00F08A
:0200AA00000054
:020000040030CA
:0100000000FF
:0100010008F6
:0100020018E5
:010003001EDE
:010005008179
:010006008178
:010008000FE8
:01000900C036
:01000A000FE6
:01000B00E014
:01000C000FE4
:01000D0040B2
:00000001FF
