:020000040000FA
:10000000806A92680F0EC16E070EB46E936A8A6A98
:1000100080CF00F080CF01F00C0E001600420042AD
:10002000030E011680AC17EF00F01CEF00F080AA61
:1000300021EF00F026EF00F080AA2BEF00F030EF68
:1000400000F080A835EF00F03AEF00F080A83FEF15
:1000500000F045EF00F080A84AEF00F04FEF00F00D
:1000600080A854EF00F058EF00F0015000248A6E91
:1000700008EF00F00150005C8A6E08EF00F00150BC
:100080000002F3CF8AFF08EF00F0015000148A6EDF
:1000900008EF00F0015000108A6E08EF00F00150E8
:1000A00000188A6E08EF00F0001C8A6E08EF00F05E
:0A00B000006C00C08AFF08EF00F0AA
:0200BA00000044
:020000040030CA
:0100000000FF
:0100010008F6
:0100020018E5
:010003001EDE
:010005008179
:010006008178
:010008000FE8
:01000900C036
:01000A000FE6
:01000B00E014
:01000C000FE4
:01000D0040B2
:00000001FF
