:020000040000FA
:100000001AEF00F0F9263F0C060C5B0C4F0C0A0EA1
:10001000006E510E016E0000012E0CEF00F0002E5C
:1000200009EF00F012000CC0E8FFE84602EC00F017
:100030008C6E1200846A96680F0EC16E070EB46E45
:10004000956A8C6AE86A000E0C6E13EC00F084A2CC
:1000500031EF00F007EC00F084B22AEF00F03CEF43
:1000600000F084A027EF00F007EC00F0000084B05F
:1000700034EF00F04BEF00F00C2A040E0C6247EF57
:1000800000F0030E0C6E13EC00F027EF00F013EC01
:1000900000F027EF00F00C06FF0E0C6252EF00F0AC
:0C00A00023EF00F013EC00F027EF00F05D
:0200AC00000052
:020000040030CA
:0100000000FF
:0100010008F6
:0100020018E5
:010003001EDE
:010005008179
:010006008178
:010008000FE8
:01000900C036
:01000A000FE6
:01000B00E014
:01000C000FE4
:01000D0040B2
:00000001FF
